{
  "contractName": "Escrow",
  "abi": [
    {
      "inputs": [
        {
          "internalType": "address payable",
          "name": "_customer",
          "type": "address"
        },
        {
          "internalType": "address payable",
          "name": "_supplier",
          "type": "address"
        },
        {
          "internalType": "address payable",
          "name": "_arbiter",
          "type": "address"
        }
      ],
      "payable": false,
      "stateMutability": "nonpayable",
      "type": "constructor"
    },
    {
      "anonymous": false,
      "inputs": [
        {
          "indexed": false,
          "internalType": "uint256",
          "name": "amount",
          "type": "uint256"
        },
        {
          "indexed": false,
          "internalType": "address",
          "name": "recipient",
          "type": "address"
        }
      ],
      "name": "PaymentDone",
      "type": "event"
    },
    {
      "anonymous": false,
      "inputs": [
        {
          "indexed": false,
          "internalType": "uint8",
          "name": "oldState",
          "type": "uint8"
        },
        {
          "indexed": false,
          "internalType": "uint8",
          "name": "newState",
          "type": "uint8"
        }
      ],
      "name": "StateChange",
      "type": "event"
    },
    {
      "payable": true,
      "stateMutability": "payable",
      "type": "fallback"
    },
    {
      "constant": true,
      "inputs": [],
      "name": "ESCALATED",
      "outputs": [
        {
          "internalType": "uint8",
          "name": "",
          "type": "uint8"
        }
      ],
      "payable": false,
      "stateMutability": "view",
      "type": "function"
    },
    {
      "constant": true,
      "inputs": [],
      "name": "PAID",
      "outputs": [
        {
          "internalType": "uint8",
          "name": "",
          "type": "uint8"
        }
      ],
      "payable": false,
      "stateMutability": "view",
      "type": "function"
    },
    {
      "constant": true,
      "inputs": [],
      "name": "PAY_CLAIMED",
      "outputs": [
        {
          "internalType": "uint8",
          "name": "",
          "type": "uint8"
        }
      ],
      "payable": false,
      "stateMutability": "view",
      "type": "function"
    },
    {
      "constant": true,
      "inputs": [],
      "name": "PAY_CLAIM_APPROVED",
      "outputs": [
        {
          "internalType": "uint8",
          "name": "",
          "type": "uint8"
        }
      ],
      "payable": false,
      "stateMutability": "view",
      "type": "function"
    },
    {
      "constant": true,
      "inputs": [],
      "name": "REFUND_CLAIMED",
      "outputs": [
        {
          "internalType": "uint8",
          "name": "",
          "type": "uint8"
        }
      ],
      "payable": false,
      "stateMutability": "view",
      "type": "function"
    },
    {
      "constant": true,
      "inputs": [],
      "name": "REFUND_CLAIM_APPROVED",
      "outputs": [
        {
          "internalType": "uint8",
          "name": "",
          "type": "uint8"
        }
      ],
      "payable": false,
      "stateMutability": "view",
      "type": "function"
    },
    {
      "constant": true,
      "inputs": [],
      "name": "SETTLED",
      "outputs": [
        {
          "internalType": "uint8",
          "name": "",
          "type": "uint8"
        }
      ],
      "payable": false,
      "stateMutability": "view",
      "type": "function"
    },
    {
      "constant": true,
      "inputs": [],
      "name": "UNCLAIMED",
      "outputs": [
        {
          "internalType": "uint8",
          "name": "",
          "type": "uint8"
        }
      ],
      "payable": false,
      "stateMutability": "view",
      "type": "function"
    },
    {
      "constant": true,
      "inputs": [],
      "name": "arbiter",
      "outputs": [
        {
          "internalType": "address",
          "name": "",
          "type": "address"
        }
      ],
      "payable": false,
      "stateMutability": "view",
      "type": "function"
    },
    {
      "constant": true,
      "inputs": [],
      "name": "customer",
      "outputs": [
        {
          "internalType": "address payable",
          "name": "",
          "type": "address"
        }
      ],
      "payable": false,
      "stateMutability": "view",
      "type": "function"
    },
    {
      "constant": true,
      "inputs": [],
      "name": "settlement",
      "outputs": [
        {
          "internalType": "uint256",
          "name": "",
          "type": "uint256"
        }
      ],
      "payable": false,
      "stateMutability": "view",
      "type": "function"
    },
    {
      "constant": true,
      "inputs": [],
      "name": "state",
      "outputs": [
        {
          "internalType": "uint8",
          "name": "",
          "type": "uint8"
        }
      ],
      "payable": false,
      "stateMutability": "view",
      "type": "function"
    },
    {
      "constant": true,
      "inputs": [],
      "name": "supplier",
      "outputs": [
        {
          "internalType": "address payable",
          "name": "",
          "type": "address"
        }
      ],
      "payable": false,
      "stateMutability": "view",
      "type": "function"
    },
    {
      "constant": false,
      "inputs": [],
      "name": "claim",
      "outputs": [],
      "payable": false,
      "stateMutability": "nonpayable",
      "type": "function"
    },
    {
      "constant": false,
      "inputs": [],
      "name": "reject",
      "outputs": [],
      "payable": false,
      "stateMutability": "nonpayable",
      "type": "function"
    },
    {
      "constant": false,
      "inputs": [],
      "name": "approve",
      "outputs": [],
      "payable": false,
      "stateMutability": "nonpayable",
      "type": "function"
    },
    {
      "constant": false,
      "inputs": [
        {
          "internalType": "uint256",
          "name": "_settlement",
          "type": "uint256"
        }
      ],
      "name": "settle",
      "outputs": [],
      "payable": false,
      "stateMutability": "nonpayable",
      "type": "function"
    },
    {
      "constant": false,
      "inputs": [],
      "name": "withdraw",
      "outputs": [],
      "payable": false,
      "stateMutability": "nonpayable",
      "type": "function"
    }
  ],
  "bytecode": "0x6080604052600a600260146101000a81548160ff021916908360ff1602179055506014600260156101000a81548160ff021916908360ff1602179055506019600260166101000a81548160ff021916908360ff160217905550601e600260176101000a81548160ff021916908360ff1602179055506023600260186101000a81548160ff021916908360ff1602179055506028600260196101000a81548160ff021916908360ff16021790555060326002601a6101000a81548160ff021916908360ff160217905550603c6002601b6101000a81548160ff021916908360ff160217905550600260149054906101000a900460ff166002601c6101000a81548160ff021916908360ff16021790555034801561011a57600080fd5b506040516115973803806115978339818101604052606081101561013d57600080fd5b8101908080519060200190929190805190602001909291908051906020019092919050505082600160006101000a81548173ffffffffffffffffffffffffffffffffffffffff021916908373ffffffffffffffffffffffffffffffffffffffff16021790555081600260006101000a81548173ffffffffffffffffffffffffffffffffffffffff021916908373ffffffffffffffffffffffffffffffffffffffff160217905550806000806101000a81548173ffffffffffffffffffffffffffffffffffffffff021916908373ffffffffffffffffffffffffffffffffffffffff160217905550505050611361806102366000396000f3fe6080604052600436106101095760003560e01c80635116063011610095578063937ab9bd11610064578063937ab9bd14610370578063c19d93fb146103a1578063d31a03c2146103d2578063fd7d5e2b14610403578063fe25e00a1461043457610109565b806351160630146102a85780635d0cb43a146102d357806380bdaf03146103045780638df828001461033557610109565b80633ccfd60b116100dc5780633ccfd60b146102015780634926bcb5146102185780634dc415de146102495780634e71d92d146102605780634fd392a51461027757610109565b806312424e3f1461010b5780632804b2c0146101225780632e6654e11461017957806336da4468146101aa575b005b34801561011757600080fd5b5061012061048b565b005b34801561012e57600080fd5b506101376106bc565b604051808273ffffffffffffffffffffffffffffffffffffffff1673ffffffffffffffffffffffffffffffffffffffff16815260200191505060405180910390f35b34801561018557600080fd5b5061018e6106e2565b604051808260ff1660ff16815260200191505060405180910390f35b3480156101b657600080fd5b506101bf6106f5565b604051808273ffffffffffffffffffffffffffffffffffffffff1673ffffffffffffffffffffffffffffffffffffffff16815260200191505060405180910390f35b34801561020d57600080fd5b5061021661071b565b005b34801561022457600080fd5b5061022d610cac565b604051808260ff1660ff16815260200191505060405180910390f35b34801561025557600080fd5b5061025e610cbf565b005b34801561026c57600080fd5b50610275610ec6565b005b34801561028357600080fd5b5061028c61112c565b604051808260ff1660ff16815260200191505060405180910390f35b3480156102b457600080fd5b506102bd61113f565b6040518082815260200191505060405180910390f35b3480156102df57600080fd5b506102e8611145565b604051808260ff1660ff16815260200191505060405180910390f35b34801561031057600080fd5b50610319611158565b604051808260ff1660ff16815260200191505060405180910390f35b34801561034157600080fd5b5061036e6004803603602081101561035857600080fd5b810190808035906020019092919050505061116b565b005b34801561037c57600080fd5b506103856112bb565b604051808260ff1660ff16815260200191505060405180910390f35b3480156103ad57600080fd5b506103b66112ce565b604051808260ff1660ff16815260200191505060405180910390f35b3480156103de57600080fd5b506103e76112e1565b604051808260ff1660ff16815260200191505060405180910390f35b34801561040f57600080fd5b506104186112f4565b604051808260ff1660ff16815260200191505060405180910390f35b34801561044057600080fd5b50610449611307565b604051808273ffffffffffffffffffffffffffffffffffffffff1673ffffffffffffffffffffffffffffffffffffffff16815260200191505060405180910390f35b600260159054906101000a900460ff1660ff166002601c9054906101000a900460ff1660ff1614806104e05750600260169054906101000a900460ff1660ff166002601c9054906101000a900460ff1660ff16145b6104e957600080fd5b60006002601c9054906101000a900460ff169050600260159054906101000a900460ff1660ff166002601c9054906101000a900460ff1660ff1614156105ae57600160009054906101000a900473ffffffffffffffffffffffffffffffffffffffff1673ffffffffffffffffffffffffffffffffffffffff163373ffffffffffffffffffffffffffffffffffffffff161461058357600080fd5b600260179054906101000a900460ff166002601c6101000a81548160ff021916908360ff1602179055505b600260169054906101000a900460ff1660ff166002601c9054906101000a900460ff1660ff16141561065f57600260009054906101000a900473ffffffffffffffffffffffffffffffffffffffff1673ffffffffffffffffffffffffffffffffffffffff163373ffffffffffffffffffffffffffffffffffffffff161461063457600080fd5b600260189054906101000a900460ff166002601c6101000a81548160ff021916908360ff1602179055505b7ffa441dfe95ea7994c16c2c9120482b6fe0888963d94853674dde4d7a7c105827816002601c9054906101000a900460ff16604051808360ff1660ff1681526020018260ff1660ff1681526020019250505060405180910390a150565b600160009054906101000a900473ffffffffffffffffffffffffffffffffffffffff1681565b600260199054906101000a900460ff1681565b600260009054906101000a900473ffffffffffffffffffffffffffffffffffffffff1681565b600260179054906101000a900460ff1660ff166002601c9054906101000a900460ff1660ff1614806107705750600260189054906101000a900460ff1660ff166002601c9054906101000a900460ff1660ff16145b8061079e57506002601a9054906101000a900460ff1660ff166002601c9054906101000a900460ff1660ff16145b6107a757600080fd5b60006002601c9054906101000a900460ff1690506002601b9054906101000a900460ff166002601c6101000a81548160ff021916908360ff1602179055507ffa441dfe95ea7994c16c2c9120482b6fe0888963d94853674dde4d7a7c105827816002601c9054906101000a900460ff16604051808360ff1660ff1681526020018260ff1660ff1681526020019250505060405180910390a160003073ffffffffffffffffffffffffffffffffffffffff16319050600260179054906101000a900460ff1660ff168260ff16141561096f57600260009054906101000a900473ffffffffffffffffffffffffffffffffffffffff1673ffffffffffffffffffffffffffffffffffffffff166108fc829081150290604051600060405180830381858888f193505050501580156108e0573d6000803e3d6000fd5b507fe0625f0616c915527720998890bfb87400763c6cec5470e8201e04dd72159dbb81600260009054906101000a900473ffffffffffffffffffffffffffffffffffffffff16604051808381526020018273ffffffffffffffffffffffffffffffffffffffff1673ffffffffffffffffffffffffffffffffffffffff1681526020019250505060405180910390a15b600260189054906101000a900460ff1660ff168260ff161415610a8357600160009054906101000a900473ffffffffffffffffffffffffffffffffffffffff1673ffffffffffffffffffffffffffffffffffffffff166108fc829081150290604051600060405180830381858888f193505050501580156109f4573d6000803e3d6000fd5b507fe0625f0616c915527720998890bfb87400763c6cec5470e8201e04dd72159dbb81600160009054906101000a900473ffffffffffffffffffffffffffffffffffffffff16604051808381526020018273ffffffffffffffffffffffffffffffffffffffff1673ffffffffffffffffffffffffffffffffffffffff1681526020019250505060405180910390a15b6002601a9054906101000a900460ff1660ff168260ff161415610ca857806003541115610aaf57600080fd5b600260009054906101000a900473ffffffffffffffffffffffffffffffffffffffff1673ffffffffffffffffffffffffffffffffffffffff166108fc6003549081150290604051600060405180830381858888f19350505050158015610b19573d6000803e3d6000fd5b507fe0625f0616c915527720998890bfb87400763c6cec5470e8201e04dd72159dbb600354600260009054906101000a900473ffffffffffffffffffffffffffffffffffffffff16604051808381526020018273ffffffffffffffffffffffffffffffffffffffff1673ffffffffffffffffffffffffffffffffffffffff1681526020019250505060405180910390a1600160009054906101000a900473ffffffffffffffffffffffffffffffffffffffff1673ffffffffffffffffffffffffffffffffffffffff166108fc60035483039081150290604051600060405180830381858888f19350505050158015610c15573d6000803e3d6000fd5b507fe0625f0616c915527720998890bfb87400763c6cec5470e8201e04dd72159dbb6003548203600160009054906101000a900473ffffffffffffffffffffffffffffffffffffffff16604051808381526020018273ffffffffffffffffffffffffffffffffffffffff1673ffffffffffffffffffffffffffffffffffffffff1681526020019250505060405180910390a15b5050565b600260159054906101000a900460ff1681565b600260159054906101000a900460ff1660ff166002601c9054906101000a900460ff1660ff161480610d145750600260169054906101000a900460ff1660ff166002601c9054906101000a900460ff1660ff16145b610d1d57600080fd5b600260159054906101000a900460ff1660ff166002601c9054906101000a900460ff1660ff161415610da457600160009054906101000a900473ffffffffffffffffffffffffffffffffffffffff1673ffffffffffffffffffffffffffffffffffffffff163373ffffffffffffffffffffffffffffffffffffffff1614610da357600080fd5b5b600260169054906101000a900460ff1660ff166002601c9054906101000a900460ff1660ff161415610e2b57600260009054906101000a900473ffffffffffffffffffffffffffffffffffffffff1673ffffffffffffffffffffffffffffffffffffffff163373ffffffffffffffffffffffffffffffffffffffff1614610e2a57600080fd5b5b60006002601c9054906101000a900460ff169050600260199054906101000a900460ff166002601c6101000a81548160ff021916908360ff1602179055507ffa441dfe95ea7994c16c2c9120482b6fe0888963d94853674dde4d7a7c105827816002601c9054906101000a900460ff16604051808360ff1660ff1681526020018260ff1660ff1681526020019250505060405180910390a150565b600260149054906101000a900460ff1660ff166002601c9054906101000a900460ff1660ff1614610ef657600080fd5b600160009054906101000a900473ffffffffffffffffffffffffffffffffffffffff1673ffffffffffffffffffffffffffffffffffffffff163373ffffffffffffffffffffffffffffffffffffffff161480610f9f5750600260009054906101000a900473ffffffffffffffffffffffffffffffffffffffff1673ffffffffffffffffffffffffffffffffffffffff163373ffffffffffffffffffffffffffffffffffffffff16145b610fa857600080fd5b600160009054906101000a900473ffffffffffffffffffffffffffffffffffffffff1673ffffffffffffffffffffffffffffffffffffffff163373ffffffffffffffffffffffffffffffffffffffff16141561109657600260169054906101000a900460ff166002601c6101000a81548160ff021916908360ff1602179055507ffa441dfe95ea7994c16c2c9120482b6fe0888963d94853674dde4d7a7c105827600260149054906101000a900460ff16600260169054906101000a900460ff16604051808360ff1660ff1681526020018260ff1660ff1681526020019250505060405180910390a161112a565b600260159054906101000a900460ff166002601c6101000a81548160ff021916908360ff1602179055507ffa441dfe95ea7994c16c2c9120482b6fe0888963d94853674dde4d7a7c105827600260149054906101000a900460ff16600260159054906101000a900460ff16604051808360ff1660ff1681526020018260ff1660ff1681526020019250505060405180910390a15b565b600260179054906101000a900460ff1681565b60035481565b600260189054906101000a900460ff1681565b6002601a9054906101000a900460ff1681565b600260199054906101000a900460ff1660ff166002601c9054906101000a900460ff1660ff161461119b57600080fd5b6000809054906101000a900473ffffffffffffffffffffffffffffffffffffffff1673ffffffffffffffffffffffffffffffffffffffff163373ffffffffffffffffffffffffffffffffffffffff16146111f457600080fd5b60003073ffffffffffffffffffffffffffffffffffffffff163190508082111561121d57600080fd5b816003819055506002601a9054906101000a900460ff166002601c6101000a81548160ff021916908360ff1602179055507ffa441dfe95ea7994c16c2c9120482b6fe0888963d94853674dde4d7a7c105827600260199054906101000a900460ff166002601a9054906101000a900460ff16604051808360ff1660ff1681526020018260ff1660ff1681526020019250505060405180910390a15050565b600260149054906101000a900460ff1681565b6002601c9054906101000a900460ff1681565b6002601b9054906101000a900460ff1681565b600260169054906101000a900460ff1681565b6000809054906101000a900473ffffffffffffffffffffffffffffffffffffffff168156fea265627a7a723158202dfd66e277ed0fbccf9a4a8b7cffbf7364f6833ec4e485cdbc22a9b7d393130e64736f6c634300050c0032",
  "source": "\npragma solidity 0.5.12;\ncontract Escrow{\n    address public arbiter;\n    address payable public customer;\n    address payable public supplier;\n    uint8 public UNCLAIMED = 10;\n    uint8 public PAY_CLAIMED = 20;\n    uint8 public REFUND_CLAIMED = 25;\n    uint8 public PAY_CLAIM_APPROVED = 30;\n    uint8 public REFUND_CLAIM_APPROVED = 35;\n    uint8 public ESCALATED = 40;\n    uint8 public SETTLED = 50;\n    uint8 public PAID = 60;\n    uint8 public state = UNCLAIMED;\n    uint256 public settlement;\n    \n\n    event PaymentDone(uint256 amount, address recipient);\n    event StateChange(uint8 oldState, uint8 newState);\n\n    constructor(address payable _customer, \n                address payable _supplier,\n                address payable _arbiter) public{\n\n        customer = _customer;\n        supplier = _supplier;\n        arbiter  = _arbiter;\n    }\n\n    function () external payable{}\n\n    function claim() external{\n        require(state == UNCLAIMED);\n        require(msg.sender == customer || msg.sender == supplier);\n        \n        if(msg.sender == customer){\n            state = REFUND_CLAIMED;\n            emit StateChange(UNCLAIMED, REFUND_CLAIMED);\n        } \n        else{\n            state = PAY_CLAIMED;\n            emit StateChange(UNCLAIMED, PAY_CLAIMED);            \n        }\n    }\n    \n    function reject() external{\n        require(state == PAY_CLAIMED || state == REFUND_CLAIMED);\n        if(state == PAY_CLAIMED) require(msg.sender == customer);\n        if(state == REFUND_CLAIMED) require(msg.sender == supplier);\n\n        uint8 oldState = state;\n        state = ESCALATED;\n        emit StateChange (oldState, state);\n    }    \n    \n    function approve() external{\n        require(state == PAY_CLAIMED || state == REFUND_CLAIMED);\n\n        uint8 oldState = state;\n        if(state == PAY_CLAIMED){\n            require(msg.sender == customer);\n            state = PAY_CLAIM_APPROVED;\n        }\n\n        if(state == REFUND_CLAIMED){\n            require(msg.sender == supplier);\n            state = REFUND_CLAIM_APPROVED;\n        }\n \n        emit StateChange(oldState, state);\n    }\n\n    function settle(uint256 _settlement) external{\n        require(state == ESCALATED);\n        require(msg.sender == arbiter);\n        uint256 balance = address(this).balance;\n        require (_settlement <= balance);\n\n        settlement = _settlement;\n        state = SETTLED;\n        emit StateChange(ESCALATED, SETTLED);\n    }\n\n    \n    function withdraw() external{\n        require (state == PAY_CLAIM_APPROVED || state == REFUND_CLAIM_APPROVED || state == SETTLED);\n        uint8 oldState = state;\n        state = PAID;\n        emit StateChange(oldState, state);\n\n        uint256 balance = address(this).balance;\n\n        if(oldState == PAY_CLAIM_APPROVED){\n            supplier.transfer(balance);\n            emit PaymentDone(balance , supplier);\n        }\n\n        if(oldState == REFUND_CLAIM_APPROVED){\n            customer.transfer(balance);\n            emit PaymentDone(balance , customer);\n        }\n\n\n        if(oldState == SETTLED){\n            require(settlement <= balance);\n            supplier.transfer(settlement);\n            emit PaymentDone(settlement , supplier);\n            customer.transfer(balance - settlement);\n            emit PaymentDone(balance - settlement , customer);\n            \n        }\n\n    }\n    \n\n    \n    \n    \n    \n}\n",
  "sourcePath": "/Users/davidecarboni/Desktop/code/escrow2/contracts/escrow.sol",
  "compiler": {
    "name": "solc",
    "version": "0.5.12+commit.7709ece9.Emscripten.clang"
  },
  "schemaVersion": "3.0.19",
  "updatedAt": "2020-05-10T11:11:07.109Z",
  "devdoc": {
    "methods": {}
  },
  "userdoc": {
    "methods": {}
  }
}