{
  "contractName": "EscrowFactory",
  "abi": [
    {
      "anonymous": false,
      "inputs": [
        {
          "indexed": false,
          "internalType": "address",
          "name": "escrow",
          "type": "address"
        },
        {
          "indexed": false,
          "internalType": "address",
          "name": "createdBy",
          "type": "address"
        }
      ],
      "name": "EscrowCreated",
      "type": "event"
    },
    {
      "constant": false,
      "inputs": [
        {
          "internalType": "address payable",
          "name": "customer",
          "type": "address"
        },
        {
          "internalType": "address payable",
          "name": "supplier",
          "type": "address"
        },
        {
          "internalType": "address payable",
          "name": "arbiter",
          "type": "address"
        }
      ],
      "name": "createEscrow",
      "outputs": [],
      "payable": true,
      "stateMutability": "payable",
      "type": "function"
    }
  ],
  "bytecode": "0x608060405234801561001057600080fd5b506111cb806100206000396000f3fe60806040526004361061001e5760003560e01c8063a1054f6b14610023575b600080fd5b6100a56004803603606081101561003957600080fd5b81019080803573ffffffffffffffffffffffffffffffffffffffff169060200190929190803573ffffffffffffffffffffffffffffffffffffffff169060200190929190803573ffffffffffffffffffffffffffffffffffffffff1690602001909291905050506100a7565b005b60008383836040516100b890610257565b808473ffffffffffffffffffffffffffffffffffffffff1673ffffffffffffffffffffffffffffffffffffffff1681526020018373ffffffffffffffffffffffffffffffffffffffff1673ffffffffffffffffffffffffffffffffffffffff1681526020018273ffffffffffffffffffffffffffffffffffffffff1673ffffffffffffffffffffffffffffffffffffffff1681526020019350505050604051809103906000f080158015610170573d6000803e3d6000fd5b5090507fc76ebdfeb2ab617f86d5644ebdd3f3e9ad7a4bdd5c23e71ece3316a29425cf9e8133604051808373ffffffffffffffffffffffffffffffffffffffff1673ffffffffffffffffffffffffffffffffffffffff1681526020018273ffffffffffffffffffffffffffffffffffffffff1673ffffffffffffffffffffffffffffffffffffffff1681526020019250505060405180910390a18073ffffffffffffffffffffffffffffffffffffffff166108fc349081150290604051600060405180830381858888f19350505050158015610250573d6000803e3d6000fd5b5050505050565b610f32806102658339019056fe6080604052600a600260146101000a81548160ff021916908360ff1602179055506014600260156101000a81548160ff021916908360ff160217905550601e600260166101000a81548160ff021916908360ff1602179055506028600260176101000a81548160ff021916908360ff1602179055506032600260186101000a81548160ff021916908360ff160217905550603c600260196101000a81548160ff021916908360ff160217905550600260149054906101000a900460ff166002601a6101000a81548160ff021916908360ff1602179055503480156100e257600080fd5b50604051610f32380380610f328339818101604052606081101561010557600080fd5b8101908080519060200190929190805190602001909291908051906020019092919050505082600160006101000a81548173ffffffffffffffffffffffffffffffffffffffff021916908373ffffffffffffffffffffffffffffffffffffffff16021790555081600260006101000a81548173ffffffffffffffffffffffffffffffffffffffff021916908373ffffffffffffffffffffffffffffffffffffffff160217905550806000806101000a81548173ffffffffffffffffffffffffffffffffffffffff021916908373ffffffffffffffffffffffffffffffffffffffff160217905550505050610d34806101fe6000396000f3fe6080604052600436106100f35760003560e01c806380bdaf031161008a578063b70ae9a311610059578063b70ae9a31461030c578063c19d93fb1461033d578063d31a03c21461036e578063d379be231461039f576100f3565b806380bdaf031461022257806393694f6714610253578063937ab9bd146102aa578063b140c5fc146102db576100f3565b80632e6654e1116100c65780632e6654e1146101ac5780633ccfd60b146101dd5780634dc415de146101f45780634e71d92d1461020b576100f3565b806312424e3f146100f5578063209bdf991461010c57806327779a881461013d57806328cc1b781461016e575b005b34801561010157600080fd5b5061010a6103f6565b005b34801561011857600080fd5b506101216104e4565b604051808260ff1660ff16815260200191505060405180910390f35b34801561014957600080fd5b506101526104f7565b604051808260ff1660ff16815260200191505060405180910390f35b34801561017a57600080fd5b506101aa6004803603602081101561019157600080fd5b81019080803560ff16906020019092919050505061050a565b005b3480156101b857600080fd5b506101c16105f9565b604051808260ff1660ff16815260200191505060405180910390f35b3480156101e957600080fd5b506101f261060c565b005b34801561020057600080fd5b506102096108f8565b005b34801561021757600080fd5b506102206109ae565b005b34801561022e57600080fd5b50610237610c41565b604051808260ff1660ff16815260200191505060405180910390f35b34801561025f57600080fd5b50610268610c54565b604051808273ffffffffffffffffffffffffffffffffffffffff1673ffffffffffffffffffffffffffffffffffffffff16815260200191505060405180910390f35b3480156102b657600080fd5b506102bf610c7a565b604051808260ff1660ff16815260200191505060405180910390f35b3480156102e757600080fd5b506102f0610c8d565b604051808260ff1660ff16815260200191505060405180910390f35b34801561031857600080fd5b50610321610ca0565b604051808260ff1660ff16815260200191505060405180910390f35b34801561034957600080fd5b50610352610cb3565b604051808260ff1660ff16815260200191505060405180910390f35b34801561037a57600080fd5b50610383610cc6565b604051808260ff1660ff16815260200191505060405180910390f35b3480156103ab57600080fd5b506103b4610cd9565b604051808273ffffffffffffffffffffffffffffffffffffffff1673ffffffffffffffffffffffffffffffffffffffff16815260200191505060405180910390f35b600260159054906101000a900460ff1660ff166002601a9054906101000a900460ff1660ff161461042657600080fd5b600460009054906101000a900473ffffffffffffffffffffffffffffffffffffffff1673ffffffffffffffffffffffffffffffffffffffff163373ffffffffffffffffffffffffffffffffffffffff161461048057600080fd5b6064600460146101000a81548160ff021916908360ff1602179055506000600460156101000a81548160ff021916908360ff160217905550600260169054906101000a900460ff166002601a6101000a81548160ff021916908360ff160217905550565b600460149054906101000a900460ff1681565b600260159054906101000a900460ff1681565b600260179054906101000a900460ff1660ff166002601a9054906101000a900460ff1660ff161461053a57600080fd5b6000809054906101000a900473ffffffffffffffffffffffffffffffffffffffff1673ffffffffffffffffffffffffffffffffffffffff163373ffffffffffffffffffffffffffffffffffffffff161461059357600080fd5b80600460146101000a81548160ff021916908360ff16021790555080606403600460156101000a81548160ff021916908360ff160217905550600260189054906101000a900460ff166002601a6101000a81548160ff021916908360ff16021790555050565b600260179054906101000a900460ff1681565b600260169054906101000a900460ff1660ff166002601a9054906101000a900460ff1660ff1614806106615750600260189054906101000a900460ff1660ff166002601a9054906101000a900460ff1660ff16145b61066a57600080fd5b600260199054906101000a900460ff166002601a6101000a81548160ff021916908360ff16021790555060003073ffffffffffffffffffffffffffffffffffffffff163190506000600460149054906101000a900460ff1660ff16606483816106cf57fe5b0402905060008111156107d357600360009054906101000a900473ffffffffffffffffffffffffffffffffffffffff1673ffffffffffffffffffffffffffffffffffffffff166108fc829081150290604051600060405180830381858888f19350505050158015610744573d6000803e3d6000fd5b507fe0625f0616c915527720998890bfb87400763c6cec5470e8201e04dd72159dbb81600360009054906101000a900473ffffffffffffffffffffffffffffffffffffffff16604051808381526020018273ffffffffffffffffffffffffffffffffffffffff1673ffffffffffffffffffffffffffffffffffffffff1681526020019250505060405180910390a15b600460159054906101000a900460ff1660ff16606483816107f057fe5b0402905060008111156108f457600460009054906101000a900473ffffffffffffffffffffffffffffffffffffffff1673ffffffffffffffffffffffffffffffffffffffff166108fc829081150290604051600060405180830381858888f19350505050158015610865573d6000803e3d6000fd5b507fe0625f0616c915527720998890bfb87400763c6cec5470e8201e04dd72159dbb81600460009054906101000a900473ffffffffffffffffffffffffffffffffffffffff16604051808381526020018273ffffffffffffffffffffffffffffffffffffffff1673ffffffffffffffffffffffffffffffffffffffff1681526020019250505060405180910390a15b5050565b600260159054906101000a900460ff1660ff166002601a9054906101000a900460ff1660ff161461092857600080fd5b600460009054906101000a900473ffffffffffffffffffffffffffffffffffffffff1673ffffffffffffffffffffffffffffffffffffffff163373ffffffffffffffffffffffffffffffffffffffff161461098257600080fd5b600260179054906101000a900460ff166002601a6101000a81548160ff021916908360ff160217905550565b600260149054906101000a900460ff1660ff166002601a9054906101000a900460ff1660ff16146109de57600080fd5b600160009054906101000a900473ffffffffffffffffffffffffffffffffffffffff1673ffffffffffffffffffffffffffffffffffffffff163373ffffffffffffffffffffffffffffffffffffffff161480610a875750600260009054906101000a900473ffffffffffffffffffffffffffffffffffffffff1673ffffffffffffffffffffffffffffffffffffffff163373ffffffffffffffffffffffffffffffffffffffff16145b610a9057600080fd5b33600360006101000a81548173ffffffffffffffffffffffffffffffffffffffff021916908373ffffffffffffffffffffffffffffffffffffffff160217905550600160009054906101000a900473ffffffffffffffffffffffffffffffffffffffff1673ffffffffffffffffffffffffffffffffffffffff16600360009054906101000a900473ffffffffffffffffffffffffffffffffffffffff1673ffffffffffffffffffffffffffffffffffffffff161415610bb157600260009054906101000a900473ffffffffffffffffffffffffffffffffffffffff16600460006101000a81548173ffffffffffffffffffffffffffffffffffffffff021916908373ffffffffffffffffffffffffffffffffffffffff160217905550610c15565b600160009054906101000a900473ffffffffffffffffffffffffffffffffffffffff16600460006101000a81548173ffffffffffffffffffffffffffffffffffffffff021916908373ffffffffffffffffffffffffffffffffffffffff1602179055505b600260159054906101000a900460ff166002601a6101000a81548160ff021916908360ff160217905550565b600260189054906101000a900460ff1681565b600460009054906101000a900473ffffffffffffffffffffffffffffffffffffffff1681565b600260149054906101000a900460ff1681565b600260169054906101000a900460ff1681565b600460159054906101000a900460ff1681565b6002601a9054906101000a900460ff1681565b600260199054906101000a900460ff1681565b600360009054906101000a900473ffffffffffffffffffffffffffffffffffffffff168156fea265627a7a72315820481d33a26dbe30e51fe7265fa609af272838c40d38b22a4264f2214ffaf8700664736f6c634300050c0032a265627a7a72315820de87de91c9facaf5381bc2d1a1cc924c11634d639ab826373167b0448db433c164736f6c634300050c0032",
  "source": "pragma solidity 0.5.12;\n\nimport \"./escrow.sol\";\n\ncontract EscrowFactory{\n\tevent EscrowCreated(address escrow, address createdBy);\n\n\tfunction createEscrow(address payable customer,\n\t\t\t\t\t\t  address payable supplier,\n\t\t\t\t\t\t  address payable arbiter) public payable{\n\n\t\tEscrow e = new Escrow(customer,supplier,arbiter);\n\t\temit EscrowCreated(address(e),msg.sender);\n\t\taddress(e).transfer(msg.value);\t\n\t}\t\n}",
  "sourcePath": "/Users/davidecarboni/Desktop/code/escrow2/contracts/factory.sol",
  "compiler": {
    "name": "solc",
    "version": "0.5.12+commit.7709ece9.Emscripten.clang"
  },
  "schemaVersion": "3.0.19",
  "updatedAt": "2020-03-26T23:28:02.766Z",
  "networkType": "ethereum",
  "devdoc": {
    "methods": {}
  },
  "userdoc": {
    "methods": {}
  }
}