{
  "contractName": "Escrow",
  "abi": [
    {
      "inputs": [
        {
          "internalType": "address payable",
          "name": "_customer",
          "type": "address"
        },
        {
          "internalType": "address payable",
          "name": "_supplier",
          "type": "address"
        },
        {
          "internalType": "address payable",
          "name": "_arbiter",
          "type": "address"
        }
      ],
      "payable": false,
      "stateMutability": "nonpayable",
      "type": "constructor"
    },
    {
      "anonymous": false,
      "inputs": [
        {
          "indexed": false,
          "internalType": "uint256",
          "name": "amount",
          "type": "uint256"
        },
        {
          "indexed": false,
          "internalType": "address",
          "name": "recipient",
          "type": "address"
        }
      ],
      "name": "PaymentDone",
      "type": "event"
    },
    {
      "payable": true,
      "stateMutability": "payable",
      "type": "fallback"
    },
    {
      "constant": true,
      "inputs": [],
      "name": "APPROVED",
      "outputs": [
        {
          "internalType": "bool",
          "name": "",
          "type": "bool"
        }
      ],
      "payable": false,
      "stateMutability": "view",
      "type": "function"
    },
    {
      "constant": true,
      "inputs": [],
      "name": "CLAIMED",
      "outputs": [
        {
          "internalType": "bool",
          "name": "",
          "type": "bool"
        }
      ],
      "payable": false,
      "stateMutability": "view",
      "type": "function"
    },
    {
      "constant": true,
      "inputs": [],
      "name": "ESCALATED",
      "outputs": [
        {
          "internalType": "bool",
          "name": "",
          "type": "bool"
        }
      ],
      "payable": false,
      "stateMutability": "view",
      "type": "function"
    },
    {
      "constant": true,
      "inputs": [],
      "name": "PAID",
      "outputs": [
        {
          "internalType": "bool",
          "name": "",
          "type": "bool"
        }
      ],
      "payable": false,
      "stateMutability": "view",
      "type": "function"
    },
    {
      "constant": true,
      "inputs": [],
      "name": "SETTLED",
      "outputs": [
        {
          "internalType": "bool",
          "name": "",
          "type": "bool"
        }
      ],
      "payable": false,
      "stateMutability": "view",
      "type": "function"
    },
    {
      "constant": true,
      "inputs": [],
      "name": "UNCLAIMED",
      "outputs": [
        {
          "internalType": "bool",
          "name": "",
          "type": "bool"
        }
      ],
      "payable": false,
      "stateMutability": "view",
      "type": "function"
    },
    {
      "constant": true,
      "inputs": [],
      "name": "claimer",
      "outputs": [
        {
          "internalType": "address payable",
          "name": "",
          "type": "address"
        }
      ],
      "payable": false,
      "stateMutability": "view",
      "type": "function"
    },
    {
      "constant": true,
      "inputs": [],
      "name": "claimerQuota",
      "outputs": [
        {
          "internalType": "uint8",
          "name": "",
          "type": "uint8"
        }
      ],
      "payable": false,
      "stateMutability": "view",
      "type": "function"
    },
    {
      "constant": true,
      "inputs": [],
      "name": "opponent",
      "outputs": [
        {
          "internalType": "address payable",
          "name": "",
          "type": "address"
        }
      ],
      "payable": false,
      "stateMutability": "view",
      "type": "function"
    },
    {
      "constant": true,
      "inputs": [],
      "name": "opponentQuota",
      "outputs": [
        {
          "internalType": "uint8",
          "name": "",
          "type": "uint8"
        }
      ],
      "payable": false,
      "stateMutability": "view",
      "type": "function"
    },
    {
      "constant": false,
      "inputs": [],
      "name": "claim",
      "outputs": [],
      "payable": false,
      "stateMutability": "nonpayable",
      "type": "function"
    },
    {
      "constant": false,
      "inputs": [],
      "name": "reject",
      "outputs": [],
      "payable": false,
      "stateMutability": "nonpayable",
      "type": "function"
    },
    {
      "constant": false,
      "inputs": [],
      "name": "approve",
      "outputs": [],
      "payable": false,
      "stateMutability": "nonpayable",
      "type": "function"
    },
    {
      "constant": false,
      "inputs": [
        {
          "internalType": "uint8",
          "name": "quota",
          "type": "uint8"
        }
      ],
      "name": "settle",
      "outputs": [],
      "payable": false,
      "stateMutability": "nonpayable",
      "type": "function"
    },
    {
      "constant": false,
      "inputs": [],
      "name": "withdraw",
      "outputs": [],
      "payable": false,
      "stateMutability": "nonpayable",
      "type": "function"
    }
  ],
  "bytecode": "0x60806040526001600260146101000a81548160ff0219169083151502179055506000600260156101000a81548160ff0219169083151502179055506000600260166101000a81548160ff0219169083151502179055506000600260176101000a81548160ff0219169083151502179055506000600260186101000a81548160ff0219169083151502179055506000600260196101000a81548160ff0219169083151502179055503480156100b257600080fd5b50604051610ea0380380610ea0833981810160405260608110156100d557600080fd5b8101908080519060200190929190805190602001909291908051906020019092919050505082600160006101000a81548173ffffffffffffffffffffffffffffffffffffffff021916908373ffffffffffffffffffffffffffffffffffffffff16021790555081600260006101000a81548173ffffffffffffffffffffffffffffffffffffffff021916908373ffffffffffffffffffffffffffffffffffffffff160217905550806000806101000a81548173ffffffffffffffffffffffffffffffffffffffff021916908373ffffffffffffffffffffffffffffffffffffffff160217905550505050610cd2806101ce6000396000f3fe6080604052600436106100e85760003560e01c80634e71d92d1161008a578063b140c5fc11610059578063b140c5fc146102c8578063b70ae9a3146102f7578063d31a03c214610328578063d379be2314610357576100e8565b80634e71d92d146101fc57806380bdaf031461021357806393694f6714610242578063937ab9bd14610299576100e8565b806328cc1b78116100c657806328cc1b78146101615780632e6654e11461019f5780633ccfd60b146101ce5780634dc415de146101e5576100e8565b806312424e3f146100ea578063209bdf991461010157806327779a8814610132575b005b3480156100f657600080fd5b506100ff6103ae565b005b34801561010d57600080fd5b50610116610491565b604051808260ff1660ff16815260200191505060405180910390f35b34801561013e57600080fd5b506101476104a4565b604051808215151515815260200191505060405180910390f35b34801561016d57600080fd5b5061019d6004803603602081101561018457600080fd5b81019080803560ff1690602001909291905050506104b7565b005b3480156101ab57600080fd5b506101b461059b565b604051808215151515815260200191505060405180910390f35b3480156101da57600080fd5b506101e36105ae565b005b3480156101f157600080fd5b506101fa6108bf565b005b34801561020857600080fd5b5061021161096a565b005b34801561021f57600080fd5b50610228610bf2565b604051808215151515815260200191505060405180910390f35b34801561024e57600080fd5b50610257610c05565b604051808273ffffffffffffffffffffffffffffffffffffffff1673ffffffffffffffffffffffffffffffffffffffff16815260200191505060405180910390f35b3480156102a557600080fd5b506102ae610c2b565b604051808215151515815260200191505060405180910390f35b3480156102d457600080fd5b506102dd610c3e565b604051808215151515815260200191505060405180910390f35b34801561030357600080fd5b5061030c610c51565b604051808260ff1660ff16815260200191505060405180910390f35b34801561033457600080fd5b5061033d610c64565b604051808215151515815260200191505060405180910390f35b34801561036357600080fd5b5061036c610c77565b604051808273ffffffffffffffffffffffffffffffffffffffff1673ffffffffffffffffffffffffffffffffffffffff16815260200191505060405180910390f35b600260159054906101000a900460ff166103c757600080fd5b600460009054906101000a900473ffffffffffffffffffffffffffffffffffffffff1673ffffffffffffffffffffffffffffffffffffffff163373ffffffffffffffffffffffffffffffffffffffff161461042157600080fd5b6064600460146101000a81548160ff021916908360ff1602179055506000600460156101000a81548160ff021916908360ff1602179055506001600260166101000a81548160ff0219169083151502179055506000600260156101000a81548160ff021916908315150217905550565b600460149054906101000a900460ff1681565b600260159054906101000a900460ff1681565b600260179054906101000a900460ff166104d057600080fd5b6000809054906101000a900473ffffffffffffffffffffffffffffffffffffffff1673ffffffffffffffffffffffffffffffffffffffff163373ffffffffffffffffffffffffffffffffffffffff161461052957600080fd5b80600460146101000a81548160ff021916908360ff16021790555080606403600460156101000a81548160ff021916908360ff1602179055506000600260176101000a81548160ff0219169083151502179055506001600260186101000a81548160ff02191690831515021790555050565b600260179054906101000a900460ff1681565b600260169054906101000a900460ff16806105d55750600260189054906101000a900460ff165b6105de57600080fd5b600260169054906101000a900460ff161561060f576000600260166101000a81548160ff0219169083151502179055505b600260189054906101000a900460ff1615610640576000600260186101000a81548160ff0219169083151502179055505b6001600260196101000a81548160ff02191690831515021790555060003073ffffffffffffffffffffffffffffffffffffffff163190506000600460149054906101000a900460ff1660ff166064838161069657fe5b04029050600081111561079a57600360009054906101000a900473ffffffffffffffffffffffffffffffffffffffff1673ffffffffffffffffffffffffffffffffffffffff166108fc829081150290604051600060405180830381858888f1935050505015801561070b573d6000803e3d6000fd5b507fe0625f0616c915527720998890bfb87400763c6cec5470e8201e04dd72159dbb81600360009054906101000a900473ffffffffffffffffffffffffffffffffffffffff16604051808381526020018273ffffffffffffffffffffffffffffffffffffffff1673ffffffffffffffffffffffffffffffffffffffff1681526020019250505060405180910390a15b600460159054906101000a900460ff1660ff16606483816107b757fe5b0402905060008111156108bb57600460009054906101000a900473ffffffffffffffffffffffffffffffffffffffff1673ffffffffffffffffffffffffffffffffffffffff166108fc829081150290604051600060405180830381858888f1935050505015801561082c573d6000803e3d6000fd5b507fe0625f0616c915527720998890bfb87400763c6cec5470e8201e04dd72159dbb81600460009054906101000a900473ffffffffffffffffffffffffffffffffffffffff16604051808381526020018273ffffffffffffffffffffffffffffffffffffffff1673ffffffffffffffffffffffffffffffffffffffff1681526020019250505060405180910390a15b5050565b600260159054906101000a900460ff166108d857600080fd5b600460009054906101000a900473ffffffffffffffffffffffffffffffffffffffff1673ffffffffffffffffffffffffffffffffffffffff163373ffffffffffffffffffffffffffffffffffffffff161461093257600080fd5b6001600260176101000a81548160ff0219169083151502179055506000600260156101000a81548160ff021916908315150217905550565b600260149054906101000a900460ff1661098357600080fd5b600160009054906101000a900473ffffffffffffffffffffffffffffffffffffffff1673ffffffffffffffffffffffffffffffffffffffff163373ffffffffffffffffffffffffffffffffffffffff161480610a2c5750600260009054906101000a900473ffffffffffffffffffffffffffffffffffffffff1673ffffffffffffffffffffffffffffffffffffffff163373ffffffffffffffffffffffffffffffffffffffff16145b610a3557600080fd5b33600360006101000a81548173ffffffffffffffffffffffffffffffffffffffff021916908373ffffffffffffffffffffffffffffffffffffffff160217905550600160009054906101000a900473ffffffffffffffffffffffffffffffffffffffff1673ffffffffffffffffffffffffffffffffffffffff16600360009054906101000a900473ffffffffffffffffffffffffffffffffffffffff1673ffffffffffffffffffffffffffffffffffffffff161415610b5657600260009054906101000a900473ffffffffffffffffffffffffffffffffffffffff16600460006101000a81548173ffffffffffffffffffffffffffffffffffffffff021916908373ffffffffffffffffffffffffffffffffffffffff160217905550610bba565b600160009054906101000a900473ffffffffffffffffffffffffffffffffffffffff16600460006101000a81548173ffffffffffffffffffffffffffffffffffffffff021916908373ffffffffffffffffffffffffffffffffffffffff1602179055505b6001600260156101000a81548160ff0219169083151502179055506000600260146101000a81548160ff021916908315150217905550565b600260189054906101000a900460ff1681565b600460009054906101000a900473ffffffffffffffffffffffffffffffffffffffff1681565b600260149054906101000a900460ff1681565b600260169054906101000a900460ff1681565b600460159054906101000a900460ff1681565b600260199054906101000a900460ff1681565b600360009054906101000a900473ffffffffffffffffffffffffffffffffffffffff168156fea265627a7a7231582096dbf9844491de97f919f5c796d10f73b9d0d2922adec3f33d03270e957a0c2d64736f6c634300050c0032",
  "source": "\npragma solidity 0.5.12;\ncontract Escrow{\n    address arbiter;\n    address payable customer;\n    address payable supplier;\n    bool public UNCLAIMED  = true;\n    bool public CLAIMED    = false;\n    bool public APPROVED   = false;\n    bool public ESCALATED  = false;\n    bool public SETTLED    = false;\n    bool public PAID       = false;\n    address payable public claimer;\n    address payable public opponent;\n    uint8 public claimerQuota;\n    uint8 public opponentQuota;\n    \n\n    event PaymentDone(uint256 amount, address recipient);\n\n    constructor(address payable _customer, \n                address payable _supplier,\n                address payable _arbiter) public{\n\n        customer = _customer;\n        supplier = _supplier;\n        arbiter  = _arbiter;\n    }\n\n    function () external payable{}\n\n    function claim() external{\n        require(UNCLAIMED);\n        require(msg.sender == customer || msg.sender == supplier);\n        claimer = msg.sender;\n\n        if(claimer == customer) opponent=supplier;\n        else opponent = customer;\n\n        CLAIMED = true;\n        UNCLAIMED = false;\n    }\n    \n    function reject() external{\n        require(CLAIMED);\n        require(msg.sender == opponent);\n        ESCALATED = true;\n        CLAIMED = false;\n\n    }    \n    \n    function approve() external{\n        require(CLAIMED);\n        require(msg.sender == opponent);\n        claimerQuota = 100;\n        opponentQuota = 0;\n        APPROVED = true;\n        CLAIMED = false;\n    }\n\n    function settle(uint8 quota) external{\n        require(ESCALATED);\n        require(msg.sender == arbiter);\n        claimerQuota = quota;\n        opponentQuota = 100 - quota;\n        ESCALATED = false;\n        SETTLED = true;\n    }\n\n    \n    function withdraw() external{\n        require (APPROVED || SETTLED);\n        if (APPROVED) APPROVED = false;\n        if (SETTLED) SETTLED = false;\n        PAID = true;\n\n        uint256 balance = address(this).balance;\n\n        uint256 amount = (balance/100) * claimerQuota;\n\n        if(amount>0){\n            claimer.transfer(amount);\n            emit PaymentDone(amount , claimer);\n        }\n\n        amount = (balance/100) * opponentQuota;\n\n        if(amount>0){\n            opponent.transfer(amount);\n            emit PaymentDone(amount , opponent);\n        }\n\n        \n        \n    }\n    \n\n    \n    \n    \n    \n}\n",
  "sourcePath": "/Users/davidecarboni/Desktop/code/escrow2/contracts/escrow.sol",
  "compiler": {
    "name": "solc",
    "version": "0.5.12+commit.7709ece9.Emscripten.clang"
  },
  "schemaVersion": "3.0.19",
  "updatedAt": "2020-03-17T09:59:30.632Z",
  "devdoc": {
    "methods": {}
  },
  "userdoc": {
    "methods": {}
  }
}